{
  "contractName": "Voting",
  "abi": [
    {
      "constant": true,
      "inputs": [
        {
          "name": "",
          "type": "uint256"
        }
      ],
      "name": "optionList",
      "outputs": [
        {
          "name": "",
          "type": "bytes32"
        }
      ],
      "payable": false,
      "stateMutability": "view",
      "type": "function"
    },
    {
      "constant": true,
      "inputs": [
        {
          "name": "",
          "type": "bytes32"
        }
      ],
      "name": "votesReceived",
      "outputs": [
        {
          "name": "",
          "type": "uint256"
        }
      ],
      "payable": false,
      "stateMutability": "view",
      "type": "function"
    },
    {
      "inputs": [
        {
          "name": "optionNames",
          "type": "bytes32[]"
        }
      ],
      "payable": false,
      "stateMutability": "nonpayable",
      "type": "constructor"
    },
    {
      "constant": true,
      "inputs": [
        {
          "name": "option",
          "type": "bytes32"
        }
      ],
      "name": "totalVotesFor",
      "outputs": [
        {
          "name": "",
          "type": "uint256"
        }
      ],
      "payable": false,
      "stateMutability": "view",
      "type": "function"
    },
    {
      "constant": false,
      "inputs": [
        {
          "name": "option",
          "type": "bytes32"
        }
      ],
      "name": "voteForCandidate",
      "outputs": [],
      "payable": false,
      "stateMutability": "nonpayable",
      "type": "function"
    },
    {
      "constant": true,
      "inputs": [
        {
          "name": "option",
          "type": "bytes32"
        }
      ],
      "name": "validOption",
      "outputs": [
        {
          "name": "",
          "type": "bool"
        }
      ],
      "payable": false,
      "stateMutability": "view",
      "type": "function"
    }
  ],
  "bytecode": "0x608060405234801561001057600080fd5b506040516103d93803806103d98339810180604052602081101561003357600080fd5b81019080805164010000000081111561004b57600080fd5b8281019050602081018481111561006157600080fd5b815185602082028301116401000000008211171561007e57600080fd5b5050929190505050806001908051906020019061009c9291906100a3565b5050610115565b8280548282559060005260206000209081019282156100df579160200282015b828111156100de5782518255916020019190600101906100c3565b5b5090506100ec91906100f0565b5090565b61011291905b8082111561010e5760008160009055506001016100f6565b5090565b90565b6102b5806101246000396000f3fe608060405234801561001057600080fd5b50600436106100575760003560e01c80630553848c1461005c5780632f265cf7146100a2578063573489a9146100e45780637021939f14610126578063cc9ab26714610168575b600080fd5b6100886004803603602081101561007257600080fd5b8101908080359060200190929190505050610196565b604051808215151515815260200191505060405180910390f35b6100ce600480360360208110156100b857600080fd5b81019080803590602001909291905050506101ec565b6040518082815260200191505060405180910390f35b610110600480360360208110156100fa57600080fd5b810190808035906020019092919050505061021a565b6040518082815260200191505060405180910390f35b6101526004803603602081101561013c57600080fd5b810190808035906020019092919050505061023b565b6040518082815260200191505060405180910390f35b6101946004803603602081101561017e57600080fd5b8101908080359060200190929190505050610253565b005b600080600090505b6001805490508110156101e15782600182815481106101b957fe5b906000526020600020015414156101d45760019150506101e7565b808060010191505061019e565b50600090505b919050565b60006101f782610196565b61020057600080fd5b600080838152602001908152602001600020549050919050565b6001818154811061022757fe5b906000526020600020016000915090505481565b60006020528060005260406000206000915090505481565b61025c81610196565b61026557600080fd5b6001600080838152602001908152602001600020600082825401925050819055505056fea165627a7a723058207f290212a6a3d808570db9ecb48673d5a22bcef591795960d5890b835ddf20280029",
  "source": "pragma solidity ^0.5.8;\n\n// We have to specify what version of compiler this code will compile with\n\ncontract Voting {\n\t/* mapping field below is equivalent to an associative array or hash.\n  The key of the mapping is candidate name stored as type bytes32 and value is\n  an unsigned integer to store the vote count\n  */\n\n\tmapping(bytes32 => uint256) public votesReceived;\n\n\t/* Solidity doesn't let you pass in an array of strings in the constructor (yet).\n  We will use an array of bytes32 instead to store the list of candidates\n  */\n\n\tbytes32[] public optionList;\n\n\t/* This is the constructor which will be called once when you\n  deploy the contract to the blockchain. When we deploy the contract,\n  we will pass an array of candidates who will be contesting in the election\n  */\n\tconstructor(bytes32[] memory optionNames) public {\n\t\toptionList = optionNames;\n\t}\n\n\t// This function returns the total votes a candidate has received so far\n\tfunction totalVotesFor(bytes32 option) public view returns (uint256) {\n\t\trequire(validOption(option));\n\t\treturn votesReceived[option];\n\t}\n\n\t// This function increments the vote count for the specified candidate. This\n\t// is equivalent to casting a vote\n\tfunction voteForCandidate(bytes32 option) public {\n\t\trequire(validOption(option));\n\t\tvotesReceived[option] += 1;\n\t}\n\n\tfunction validOption(bytes32 option) public view returns (bool) {\n\t\tfor (uint256 i = 0; i < optionList.length; i++) {\n\t\t\tif (optionList[i] == option) {\n\t\t\t\treturn true;\n\t\t\t}\n\t\t}\n\t\treturn false;\n\t}\n}\n",
  "sourcePath": "/mnt/c/Users/cyin7/Desktop/music-voting/contracts/Voting.sol",
  "compiler": {
    "name": "solc",
    "version": "0.5.8+commit.23d335f2.Emscripten.clang"
  },
  "schemaVersion": "3.0.17",
  "updatedAt": "2020-08-21T06:45:57.953Z",
  "devdoc": {
    "methods": {}
  },
  "userdoc": {
    "methods": {}
  }
}